:100000000C945D000C9485000C9485000C94850084
:100010000C9485000C9485000C9485000C9485004C
:100020000C9485000C9485000C9485000C9485003C
:100030000C9485000C9485000C9485000C9485002C
:100040000C94D9010C9485000C9485000C948500C7
:100050000C9485000C9485000C9485000C9485000C
:100060000C9485000C9485000000000024002700FB
:100070002A0000000000250028002B0004040404CE
:100080000404040402020202020203030303030342
:10009000010204081020408001020408102001021F
:1000A00004081020000000080002010000030407FB
:1000B0000000000000000000EC0211241FBECFEF82
:1000C000D8E0DEBFCDBF11E0A0E0B1E0ECE5F7E0A5
:1000D00002C005900D92A438B107D9F722E0A4E838
:1000E000B1E001C01D92AA39B207E1F710E0CDE5F9
:1000F000D0E004C02197FE010E94A603CC35D107B1
:10010000C9F70E9423020C94AC030C94000090E009
:10011000FC01EC55FF4F3491FC01E057FF4F249157
:10012000FC01E458FF4FE491EE2309F43BC0332374
:1001300039F1333091F038F43130A9F0323001F533
:1001400084B58F7D12C0373091F03830A1F0343053
:10015000B9F4809180008F7D03C0809180008F77FB
:10016000809380000DC084B58F7784BD09C08091D5
:10017000B0008F7703C08091B0008F7D8093B00076
:10018000F0E0EE0FFF1FEE58FF4FA591B4918FB72F
:10019000F894EC91611103C020952E2301C02E2B01
:1001A0002C938FBF08952FB7F894609196027091A9
:1001B000970280919802909199022FBF0895CF9352
:1001C000DF93EC017F836E830E94D3006887798779
:1001D0008A879B878E819F81009721F0019741F448
:1001E0006A8101C069818881DF91CF910C94870079
:1001F000DF91CF9108950F931F93CF93DF938C01DD
:10020000EB01FB01EE0FFF1FEE0FFF1FE00FF11FD1
:1002100066817781F801828193810E94DF002296B6
:10022000CC0FDD1FCC0FDD1FC00FD11F688179817E
:10023000F80184819581DF91CF911F910F910C94EA
:10024000DF000F931F93CF93DF938C0186E0869F8F
:10025000E001879FD00D1124C00FD11F68857985DB
:10026000F801868197810E94DF006A857B85F8010D
:10027000848195810E94DF006C857D85F8018281F3
:100280009381DF91CF911F910F910C94DF000F9319
:100290001F93CF93DF93FC012681378122303105F4
:1002A00049F5EC010E94D300088519852A853B8514
:1002B000AB01BC01401B510B620B730B8B819C810A
:1002C000A0E0B0E084179507A607B70798F48D81E2
:1002D000882311F0698101C06A8188810E948700AA
:1002E0009D8181E089278D830E94D300688779876B
:1002F0008A879B87DF91CF911F910F910895CF93AC
:10030000DF93EC018A819B810E9447018C819D8152
:10031000DF91CF910C944701CF93DF93EC018E8155
:100320009F810E9447018C819D810E9447018A81A3
:100330009B81DF91CF910C9447010F931F93CF9333
:10034000DF93EC011D82688349832A831C830B831E
:1003500070E0FB01E057FF4F8491FB01E458FF4F31
:100360002491222399F030E0220F331FF901E8593C
:10037000FF4FA591B491F901EE58FF4F25913491AB
:100380009FB7F894EC91E82BEC939FBF81E090E04D
:100390009F838E836A8188810E9487000E94D30098
:1003A000688779878A879B87DF91CF911F910F910B
:1003B00008951F920F920FB60F9211242F933F931F
:1003C0008F939F93AF93BF938091960290919702E2
:1003D000A0919802B09199023091950223E0230FE9
:1003E0002D3720F40196A11DB11D05C026E8230F6D
:1003F0000296A11DB11D20939502809396029093C1
:100400009702A0939802B0939902809191029091E3
:100410009202A0919302B09194020196A11DB11D88
:100420008093910290939202A0939302B0939402CE
:10043000BF91AF919F918F913F912F910F900FBEE0
:100440000F901F901895789484B5826084BD84B510
:10045000816084BD85B5826085BD85B5816085BDBF
:1004600080916E00816080936E0010928100809177
:1004700081008260809381008091810081608093FF
:100480008100809180008160809380008091B10024
:1004900084608093B1008091B00081608093B0004F
:1004A00080917A00846080937A0080917A008260E3
:1004B00080937A0080917A00816080937A008091A5
:1004C0007A00806880937A001092C10062E070E048
:1004D00085E892E00E94DF0063E070E08FE692E042
:1004E0000E94FB0063E070E08FE692E00E94FB0058
:1004F00063E070E08DE292E00E94210163E070E031
:1005000081E092E00E94210100E010E00E94D3000F
:100510006B017C0185E892E00E9447018FE692E042
:100520000E947F0189E592E00E947F018DE292E0C6
:100530000E948C0181E092E00E948C018091FD017B
:100540009091FE01A091FF01B0910002C81AD90A52
:10055000EA0AFB0A89E8C81683E1D806E104F10437
:10056000A0F10E94D3006093FD017093FE0180937F
:10057000FF01909300028091FC018F5F883018F496
:100580008093FC0102C01092FC01C091FC0188E044
:10059000C89FE0011124CC5BDE4F688179818DE238
:1005A00092E00E9421016A817B818FE692E00E94A5
:1005B000FB006C817D8181E092E00E9421016E81CF
:1005C0007F8189E592E00E94FB000115110509F485
:1005D0009DCF0E9400009ACF0F931F93CF93DF937C
:1005E00008EC10E020E041E06DE085E892E00E9438
:1005F0009D0104EF11E020E041E06AE080EF91E02E
:100600000E949D0120E041E069E084EE91E00E94BB
:100610009D0121E040E065E088ED91E00E949D01B0
:1006200021E040E064E08CEC91E00E949D0120E03C
:1006300041E066E080EC91E00E949D0120E041E015
:1006400067E084EB91E00E949D0120E041E068E0DA
:1006500088EA91E00E949D0121E040E061E08CE9A0
:1006600091E00E949D0121E040E062E080E991E09C
:100670000E949D0121E040E063E084E891E00E9457
:100680009D01CFE6D2E080E491E09983888320E168
:10069000E0E0F1E0A5E7B2E001900D922A95E1F7E4
:1006A00020EF31E03B832A8324EE31E03D832C832D
:1006B000C9E5D2E09983888380E1E0E0F1E0AFE52D
:1006C000B2E001900D928A95E1F788ED91E09B836D
:1006D0008A838CEC91E09D838C83CDE2D2E088E329
:1006E00091E09983888324E2E0E1F1E0A5E3B2E0C0
:1006F00001900D922A95E1F728EA31E03F832E839D
:1007000024EB31E03D832C8320EC31E03B832A83D2
:10071000C1E0D2E09983888384E2E0E1F1E0A9E0DE
:10072000B2E001900D928A95E1F784E891E09F8311
:100730008E8380E991E09D838C838CE991E09B839B
:100740008A83DF91CF911F910F910895EE0FFF1FC4
:0C0750000590F491E02D0994F894FFCF7F
:10075C000000010002000100010000000100010086
:10076C000000010001000200010001000100010075
:10077C000000010002000100010000000100010066
:10078C0000000000000000008C01210100000000AE
:10079C007F01FB00000002000200000001000200CB
:1007AC00020001000400020002000200020000002E
:1007BC00050002000200000000000200020001001F
:1007CC000100020002000200050002000500020008
:0407DC000200020015
:00000001FF
